S00D00004C61625F322E7372656377
S11300000C9434000C943E000C943E000C943E007E
S11300100C943E000C943E000C943E000C943E0064
S11300200C943E000C943E000C943E000C943E0054
S11300300C943E000C943E000C943E000C943E0044
S11300400C943E000C943E000C943E000C943E0034
S11300500C943E000C943E000C943E000C943E0024
S11300600C943E000C943E0011241FBECFEFD8E048
S1130070DEBFCDBF0E945D000C9462000C940000B2
S113008084B1806284B9089585B1806285B92FEF07
S113009083ED90E3215080409040E1F700C00000E0
S11300A085B18F7D85B92FEF83ED90E3215080409A
S11300B09040E1F700C0000008950E9440000E94B3
S10B00C04400FDCFF894FFCFCA
S9030000FC
