S00D00004C61625F322E7372656377
S11300000C9434000C9451000C9451000C94510045
S11300100C9451000C9451000C9451000C94510018
S11300200C9451000C9451000C9451000C94510008
S11300300C9451000C9451000C9451000C945100F8
S11300400C9451000C9451000C9451000C945100E8
S11300500C9451000C9451000C9451000C945100D8
S11300600C9451000C94510011241FBECFEFD8E022
S1130070DEBFCDBF11E0A0E0B1E0ECEFF2E002C0E2
S113008005900D92A031B107D9F721E0A0E1B1E0CC
S113009001C01D92A031B207E1F70E942E010C9419
S11300A07C010C94000080E480937C0087E88093BA
S11300B07A00089580FF04C095B1986095B903C093
S11300C095B1977F95B981FF04C095B1946095B9B6
S11300D003C095B19B7F95B982FF04C09BB1946026
S11300E09BB903C09BB19B7F9BB983FF04C09BB1A9
S11300F098609BB903C09BB1977F9BB984FF04C0F0
S11301009BB190619BB903C09BB19F7E9BB985FF56
S113011004C09BB190629BB903C09BB19F7D9BB906
S113012086FF04C09BB190649BB903C09BB19F7BC5
S11301309BB9882324F48BB180688BB908958BB163
S11301408F778BB9089595B19D7F95B90E945A0018
S113015085B1816085B98FE99FE00197F1F700C00F
S1130160000085B18E7F85B98FE99FE00197F1F793
S113017000C00000089585B18D7F85B985B18E7F5B
S113018085B92FEF89EF90E0215080409040E1F74E
S113019000C0000080E30E94A3008FE19EE4019769
S11301A0F1F700C0000080E30E94A3008FE99FE004
S11301B00197F1F700C0000080E30E94A3008FE3E1
S11301C09CE90197F1F700C0000088E30E94A300B6
S11301D08CE00E94A30081E00E94A30086E00E94BC
S11301E0A3000895813029F480E8860F0E94A300BB
S11301F00895823021F480EC860F0E94A3000895B4
S113020095B1926095B90E945A0085B1816085B913
S11302108FE99FE00197F1F700C0000085B18E7F60
S113022085B98FE99FE00197F1F700C000000895B8
S11302300F931F93CF93DF938C01C0E0D0E003C0F2
S11302400E9400012196F801EC0FFD1F80818111AD
S1130250F7CFDF91CF911F910F9108958FEF8AB956
S113026083E084B90E94BB000E94530060E875E2F9
S113027080E090E00E94450160E081E00E94F2008D
S113028080E091E00E941801FFCF9B01AC0160E483
S113029072E48FE090E00E945A01215031093093BA
S11302A0C5002093C40088E18093C10086E0809358
S11302B0C2000895A1E21A2EAA1BBB1BFD010DC0AA
S11302C0AA1FBB1FEE1FFF1FA217B307E407F50702
S11302D020F0A21BB30BE40BF50B661F771F881FDE
S11302E0991F1A9469F760957095809590959B0174
S10F02F0AC01BD01CF010895F894FFCFCC
S11302FC53313A20202053323A20202053333A00F1
S9030000FC
