S00D00004C61625F322E7372656377
S11300000C9434000C9451000C9451000C94510045
S11300100C9451000C9451000C9451000C94510018
S11300200C9451000C9451000C9451000C94510008
S11300300C9451000C9451000C9451000C945100F8
S11300400C9451000C9451000C9451000C945100E8
S11300500C9451000C9451000C9451000C945100D8
S11300600C9451000C94510011241FBECFEFD8E022
S1130070DEBFCDBF11E0A0E0B1E0ECEEFAE002C0DB
S113008005900D92A433B107D9F721E0A4E3B1E0C0
S113009001C01D92AA34B207E1F70E946C010C94CE
S11300A074050C94000080E480937C0087E88093BE
S11300B07A000895ECE7F0E09081987F8770892BAF
S11300C08083EAE7F0E080818064808380917A0015
S11300D086FDFCCF80917800909179000895CF92AD
S11300E0DF92EF92FF920F931F93CF93DF936C01F4
S11300F07B01D42FC0E011C08C2F90E08C01000F45
S1130100111F0E0D1F1DF601E80FF91F80810E94BB
S11301105A00F80191838083CF5FCD1768F3DF9194
S1130120CF911F910F91FF90EF90DF90CF900895A2
S113013080FF04C095B1986095B903C095B1977FCD
S113014095B981FF04C095B1946095B903C095B188
S11301509B7F95B982FF04C09BB194609BB903C097
S11301609BB19B7F9BB983FF04C09BB198609BB9F3
S113017003C09BB1977F9BB984FF04C09BB190617E
S11301809BB903C09BB19F7E9BB985FF04C09BB103
S113019090629BB903C09BB19F7D9BB986FF04C04D
S11301A09BB190649BB903C09BB19F7B9BB988238F
S11301B024F48BB180688BB908958BB18F778BB998
S11301C0089595B19D7F95B90E94980085B181608D
S11301D085B98FE99FE00197F1F700C0000085B170
S11301E08E7F85B98FE99FE00197F1F700C0000089
S11301F0089585B18D7F85B985B18E7F85B92FEF3F
S113020089EF90E0215080409040E1F700C0000069
S113021080E30E94E1008FE19EE40197F1F700C0C2
S1130220000080E30E94E1008FE99FE00197F1F76D
S113023000C0000080E30E94E1008FE39CE9019785
S1130240F1F700C0000088E30E94E1008CE00E9406
S1130250E10081E00E94E10086E00E94E10008954F
S1130260813029F480E8860F0E94E10008958230ED
S113027021F480EC860F0E94E100089595B192600C
S113028095B90E94980085B1816085B98FE99FE096
S11302900197F1F700C0000085B18E7F85B98FE921
S11302A09FE00197F1F700C0000008950F931F939A
S11302B0CF93DF938C01C0E0D0E003C00E943E01E5
S11302C02196F801EC0FFD1F80818111F7CFDF919A
S11302D0CF911F910F910895CF93DF9300D0CDB7A5
S11302E0DEB78FEF8AB983E084B90E94F9000E94D7
S11302F0530060E875E280E090E00E942A0287E003
S1130300898386E08A8360E081E00E94300180E096
S113031091E00E94560142E066E471E0CE0101964C
S11303200E946F0060E082E00E9430010F2EF6E42C
S1130330EF2EF1E0FF2EF02DF70183818F93828160
S11303408F930F2EF0E1AF2EF1E0BF2EF02DBF9270
S1130350AF921F926894DD24D4F8DF9206E311E093
S11303601F930F930E947C02C8010E945601F7015B
S113037081818F9380818F93BF92AF921F92DF927E
S11303801F930F930E947C0266E082E00E9430017A
S1130390C8010E945601809135018F9380913401E8
S11303A08F9385E191E09F938F931F92DF921F9328
S11303B00F930E947C026BE082E00E943001C8012E
S11303C00E945601809135018F93809134018F935F
S11303D0F70181818F9380818F9383818F938281B1
S11303E08F9389E191E09F938F931F92DF921F93E4
S11303F00F930E947C020FB6F894DEBF0FBECDBFF0
S1130400C8010E944D028091C0008823CCF40E9450
S113041046028B3251F4809134019091350101965A
S113042090933501809334010BC08D3249F480914F
S113043034019091350101979093350180933401F3
S11304409FEFE9E6F8E19150E040F040E1F700C0A9
S1130450000061CF9B01AC0160E472E48FE090E0A6
S11304600E945A02215031093093C5002093C400E0
S113047088E18093C10086E08093C2000895909142
S1130480C00095FFFCCF8093C60008958091C00002
S11304908823E4F78091C6000895CF93DF93EC019D
S11304A003C021960E943F0288818111FACFDF9117
S11304B0CF910895A1E21A2EAA1BBB1BFD010DC00A
S11304C0AA1FBB1FEE1FFF1FA217B307E407F50700
S11304D020F0A21BB30BE40BF50B661F771F881FDC
S11304E0991F1A9469F760957095809590959B0172
S11304F0AC01BD01CF010895AEE0B0E0E2E8F2E066
S11305000C944B050D891E898F89988D26E02C83C8
S11305101A83098397FF02C080E090E801979E83C5
S11305208D83AE01455E5F4F698D7A8DCE01019654
S11305300E94AC024D815E8157FD0AC02F8138852F
S1130540421753070CF49A01F801E20FF31F1082CB
S11305502E96E4E00C946705ABE0B0E0E2EBF2E049
S11305600C943D056C017B018A01FC011782168203
S1130570838181FFCCC1CE0101963C01F6019381B8
S1130580F70193FD859193FF81917F01882309F4FD
S1130590BAC1853239F493FD859193FF81917F012E
S11305A0853229F4B60190E00E94A304E7CF912C90
S11305B0212C312CFFE1F315D8F08B3279F038F48B
S11305C0803279F08332A1F4232D20611DC08D3255
S11305D061F0803369F4232D216016C0832D82607D
S11305E0382EE32DE4603E2E2AC0F32DF8601DC0A2
S11305F037FC2DC020ED280F2A3040F08E32B9F49C
S113060036FC81C1232D2064322E19C036FE06C06B
S11306108AE0989E200D1124922E11C0EAE02E9EAD
S1130620200D1124222EF32DF0623F2E08C08C36AB
S113063021F4832D8068382E02C0883641F4F701F6
S113064093FD859193FF81917F018111B3CF982F01
S11306509F7D9554933028F40C5F1F4F9FE399833B
S11306600DC0833631F0833771F0833509F059C0FA
S113067021C0F801808189830E5F1F4F88248394F1
S1130680912C530113C02801F2E04F0E511CF801C4
S1130690A080B18036FE03C0692D70E002C06FEF08
S11306A07FEFC5010E9498044C018201F32DFF776E
S11306B03F2E16C0280122E0420E511CF801A080F2
S11306C0B18036FE03C0692D70E002C06FEF7FEF8A
S11306D0C5010E948D044C01F32DF0683F2E820168
S11306E033FC1BC0822D90E088169906B0F4B60145
S11306F080E290E00E94A3042A94F4CFF50137FC31
S1130700859137FE81915F01B60190E00E94A304B8
S113071021102A9421E0821A91088114910471F71E
S1130720E8C0843611F0893641F5F80137FE07C078
S113073060817181828193810C5F1F4F08C0608149
S11307407181072E000C880B990B0E5F1F4FF32D40
S1130750FF763F2E97FF09C090958095709561951F
S11307607F4F8F4F9F4FF0683F2E2AE030E0A30168
S11307700E94DF04882E861845C0853731F4232D66
S11307802F7EB22E2AE030E025C0932D997FB92E1A
S11307908F36C1F018F4883579F0B5C0803719F078
S11307A0883721F0B0C0E92FE061BE2EB4FE0DC041
S11307B0FB2DF460BF2E09C034FE0AC0292F266029
S11307C0B22E06C028E030E005C020E130E002C0CF
S11307D020E132E0F801B7FE07C0608171818281B7
S11307E093810C5F1F4F06C06081718180E090E0AF
S11307F00E5F1F4FA3010E94DF04882E8618FB2D75
S1130800FF773F2E36FE0DC0232D2E7FA22E891496
S113081058F434FE0BC032FC09C0832D8E7EA82E02
S113082005C0B82CA32C03C0B82C01C0B92CA4FE5D
S11308300FC0FE01E80DF11D8081803321F49A2D53
S1130840997EA92E09C0A2FE06C0B394B39404C035
S11308508A2D867809F0B394A3FC11C0A0FE06C0CB
S1130860B21488F4280C922C9B180EC0B21460F4B5
S1130870B60180E290E00E94A304B394F7CFB214CF
S113088018F42B1802C0982C212CA4FE10C0B60119
S113089080E390E00E94A304A2FE17C0A1FC03C061
S11308A088E790E002C088E590E0B6010CC08A2D8C
S11308B0867859F0A1FE02C08BE201C080E2A7FC59
S11308C08DE2B60190E00E94A304891438F4B601C5
S11308D080E390E00E94A3049A94F7CF8A94F301F2
S11308E0E80DF11D8081B60190E00E94A3048110FF
S11308F0F5CF222009F442CEB60180E290E00E94B6
S1130900A3042A94F6CFF6018681978102C08FEF63
S11309109FEF2B96E2E10C945905FC010590615080
S113092070400110D8F7809590958E0F9F1F089501
S1130930FC016150704001900110D8F780959095AA
S11309408E0F9F1F08950F931F93CF93DF93FB0187
S1130950238121FD03C08FEF9FEF2CC022FF16C01F
S113096046815781248135814217530744F4A0817D
S1130970B1819D012F5F3F4F318320838C9326816A
S113098037812F5F3F4F3783268314C08B01EC01DF
S1130990FB010084F185E02D0995892BE1F6D8014E
S11309A016968D919C911797019617969C938E930A
S11309B01697CE01DF91CF911F910F910895FA01FF
S11309C0AA27283051F1203181F1E8946F936E7F8A
S11309D06E5F7F4F8F4F9F4FAF4FB1E03ED0B4E07B
S11309E03CD0670F781F891F9A1FA11D680F791FBC
S11309F08A1F911DA11D6A0F711D811D911DA11DCD
S1130A0020D009F468943F912AE0269F11243019DC
S1130A10305D3193DEF6CF010895462F4770405D77
S1130A204193B3E00FD0C9F7F6CF462F4F70405D26
S1130A304A3318F0495D31FD4052419302D0A9F781
S1130A40EACFB4E0A6959795879577956795BA957B
S1130A50C9F700976105710508959B01AC010A2E41
S1130A6006945795479537952795BA95C9F7620F18
S1130A70731F841F951FA01D08952F923F924F92BC
S1130A805F926F927F928F929F92AF92BF92CF921A
S1130A90DF92EF92FF920F931F93CF93DF93CDB723
S1130AA0DEB7CA1BDB0B0FB6F894DEBF0FBECDBF9B
S1130AB009942A88398848885F846E847D848C846C
S1130AC09B84AA84B984C884DF80EE80FD800C8175
S1130AD01B81AA81B981CE0FD11D0FB6F894DEBF58
S10F0AE00FBECDBFED010895F894FFCFC8
S1130AEC53313A20202053323A20202053333A00F9
S1130AFC253475560025346400414443363A257533
S1130B0C2C414443373A25752C436F756E743A2542
S1070B1C640D0A0056
S9030000FC
