S00D00004C61625F322E7372656377
S11300000C9434000C9451000C9451000C94510045
S11300100C9451000C9451000C9451000C94510018
S11300200C9451000C9451000C9451000C94510008
S11300300C9451000C9451000C9451000C945100F8
S11300400C9451000C9451000C9451000C945100E8
S11300500C9451000C9451000C9451000C945100D8
S11300600C9451000C94510011241FBECFEFD8E022
S1130070DEBFCDBF12E0A0E0B1E0E4E0FCE002C0EE
S113008005900D92AA37B107D9F722E0AAE7B2E0AA
S113009001C01D92A03CB207E1F70E941C020C941F
S11300A000060C94000080E480937C0087E8809331
S11300B07A000895ECE7F0E09081987F8770892BAF
S11300C08083EAE7F0E080818064808380917A0015
S11300D086FDFCCF80917800909179000895CF92AD
S11300E0DF92EF92FF920F931F93CF93DF936C01F4
S11300F07B01D42FC0E011C08C2F90E08C01000F45
S1130100111F0E0D1F1DF601E80FF91F80810E94BB
S11301105A00F80191838083CF5FCD1768F3DF9194
S1130120CF911F910F91FF90EF90DF90CF900895A2
S113013080FF04C09BB190619BB903C09BB19F7EBB
S11301409BB981FF04C09BB190629BB903C09BB172
S11301509F7D9BB982FF04C09BB190649BB903C08F
S11301609BB19F7B9BB983FF04C08BB180688BB923
S113017008958BB18F778BB90895CF93C82F85B12C
S11301808D7F85B98C2F82958F700E94980085B1E0
S1130190816085B98FE39FE10197F1F700C000000A
S11301A085B18E7F85B98FE39FE10197F1F700C098
S11301B000008C2F0E94980085B1816085B98FE37F
S11301C09FE10197F1F700C0000085B18E7F85B9EA
S11301D08FE39FE10197F1F700C00000CF910895EC
S11301E083E084B980EF8AB985B18D7F85B985B103
S11301F08E7F85B92FEF89EF90E0215080409040A9
S1130200E1F700C0000083E00E94BD008FE19EE49E
S11302100197F1F700C0000083E00E94BD008FE960
S11302209FE00197F1F700C0000083E00E94BD0049
S11302308FE39CE90197F1F700C0000082E00E947F
S1130240BD0088E20E94BD008CE00E94BD0081E0F8
S11302500E94BD008FE39FE10197F1F700C0000009
S113026086E00E94BD00089581E00E94BD008FE3F6
S11302709FE10197F1F700C000000895813029F44F
S113028080E8860F0E94BD000895823021F480EC3E
S1130290860F0E94BD000895CF93C82F85B1826058
S11302A085B98C2F82958F700E94980085B18160EA
S11302B085B98FE39FE10197F1F700C0000085B194
S11302C08E7F85B98FE39FE10197F1F700C00000AD
S11302D08C2F0E94980085B1816085B98FE39FE1DE
S11302E00197F1F700C0000085B18E7F85B98FE3D7
S11302F09FE10197F1F700C00000CF910895CF93DB
S1130300DF93EC0103C021960E944C018881811186
S1130310FACFDF91CF91089580E091E00E94D90255
S113032085E191E00E94D90281E391E00E94D90223
S11303308FE491E00E94D9028DE691E00E94D902F7
S11303408DE891E00E94D90281EA91E00E94D902ED
S113035008958D32E1F118F48B3259F166C081337E
S113036021F0843309F441C060C0ECEBF2E08181F8
S11303708F9380818F9383818F9382818F9389EB75
S113038091E09F938F931F9280E48F938CE792E088
S11303909F938F930E9408038CE792E00E94D902F6
S11303A08DB79EB70A960FB6F8949EBF0FBE8DBF49
S11303B040C080917A0290917B02019690937B02D7
S11303C080937A028CED91E00E94D90232C0809130
S11303D07A0290917B02019790937B0280937A0238
S11303E085EF91E00E94D90224C080917B028F9313
S11303F080917A028F938EE092E09F938F931F9265
S113040080E48F938CE792E09F938F930E9408037C
S11304108CE792E00E94D9028DB79EB708960FB67A
S1130420F8949EBF0FBE8DBF04C087E292E00E9485
S1130430D9020E948C010895CF93DF9300D0CDB7E9
S1130440DEB78FEF8AB983E084B90E94F0000E947E
S1130450530060E875E280E090E00E94B60287E015
S1130460898386E08A830E9434012FEF31EE84E091
S1130470215030408040E1F700C0000060E081E09E
S11304800E943E0183E692E00E947F010E948C015B
S113049042E06CEB72E0CE0101960E946F0060E0D6
S11304A082E00E943E010F2EFCEBCF2EF2E0DF2E05
S11304B0F02DF60183818F9382818F930F2EF1E7C4
S11304C0EF2EF2E0FF2EF02DFF92EF921F92689430
S11304D0BB24B6F8BF920CE712E01F930F930E945F
S11304E00803C8010E947F0166E082E00E943E0189
S11304F0F60181818F9380818F93FF92EF921F92F7
S1130500BF921F930F930E940803C8010E947F01AA
S11305106AE082E00E943E0180917B028F93809189
S11305207A028F9385E792E09F938F931F92BF92F5
S11305301F930F930E940803C8010E947F018091BA
S1130540C0000FB6F894DEBF0FBECDBF882324F4DD
S11305500E94D2020E94A9013FEF89E698E131503E
S113056080409040E1F700C0000092CF9B01AC01B5
S113057060E472E48FE090E00E94E60221503109C9
S11305803093C5002093C40088E18093C10086E0C5
S11305908093C20008959091C00095FFFCCF809392
S11305A0C60008958091C0008823E4F78091C600B6
S11305B00895CF93DF93EC0103C021960E94CB02F0
S11305C088818111FACFDF91CF910895A1E21A2E8B
S11305D0AA1BBB1BFD010DC0AA1FBB1FEE1FFF1FE3
S11305E0A217B307E407F50720F0A21BB30BE40B33
S11305F0F50B661F771F881F991F1A9469F760957A
S11306007095809590959B01AC01BD01CF01089533
S1130610AEE0B0E0EEE0F3E00C94D7050D891E895E
S11306208F89988D26E02C831A83098397FF02C053
S113063080E090E801979E838D83AE01455E5F4F15
S1130640698D7A8DCE0101960E9438034D815E81B9
S113065057FD0AC02F813885421753070CF49A01BD
S1130660F801E20FF31F10822E96E4E00C94F305D8
S1130670ABE0B0E0EEE3F3E00C94C9056C017B0160
S11306808A01FC0117821682838181FFCCC1CE01CD
S113069001963C01F6019381F70193FD859193FF47
S11306A081917F01882309F4BAC1853239F493FD1D
S11306B0859193FF81917F01853229F4B60190E001
S11306C00E942F05E7CF912C212C312CFFE1F3154B
S11306D0D8F08B3279F038F4803279F08332A1F497
S11306E0232D20611DC08D3261F0803369F4232DE8
S11306F0216016C0832D8260382EE32DE4603E2EE7
S11307002AC0F32DF8601DC037FC2DC020ED280F42
S11307102A3040F08E32B9F436FC81C1232D206496
S1130720322E19C036FE06C08AE0989E200D112490
S1130730922E11C0EAE02E9E200D1124222EF32DBC
S1130740F0623F2E08C08C3621F4832D8068382E49
S113075002C0883641F4F70193FD859193FF81919E
S11307607F018111B3CF982F9F7D9554933028F446
S11307700C5F1F4F9FE399830DC0833631F083379D
S113078071F0833509F059C021C0F8018081898353
S11307900E5F1F4F88248394912C530113C02801AA
S11307A0F2E04F0E511CF801A080B18036FE03C068
S11307B0692D70E002C06FEF7FEFC5010E94240530
S11307C04C018201F32DFF773F2E16C0280122E051
S11307D0420E511CF801A080B18036FE03C0692D81
S11307E070E002C06FEF7FEFC5010E9419054C0154
S11307F0F32DF0683F2E820133FC1BC0822D90E064
S113080088169906B0F4B60180E290E00E942F05A4
S11308102A94F4CFF50137FC859137FE81915F016D
S1130820B60190E00E942F0521102A9421E0821A3B
S113083091088114910471F7E8C0843611F0893667
S113084041F5F80137FE07C060817181828193818F
S11308500C5F1F4F08C060817181072E000C880B4C
S1130860990B0E5F1F4FF32DFF763F2E97FF09C0A4
S113087090958095709561957F4F8F4F9F4FF0684D
S11308803F2E2AE030E0A3010E946B05882E8618D3
S113089045C0853731F4232D2F7EB22E2AE030E077
S11308A025C0932D997FB92E8F36C1F018F4883561
S11308B079F0B5C0803719F0883721F0B0C0E92F3E
S11308C0E061BE2EB4FE0DC0FB2DF460BF2E09C046
S11308D034FE0AC0292F2660B22E06C028E030E07C
S11308E005C020E130E002C020E132E0F801B7FEAB
S11308F007C060817181828193810C5F1F4F06C0A4
S11309006081718180E090E00E5F1F4FA3010E941F
S11309106B05882E8618FB2DFF773F2E36FE0DC003
S1130920232D2E7FA22E891458F434FE0BC032FCE2
S113093009C0832D8E7EA82E05C0B82CA32C03C01D
S1130940B82C01C0B92CA4FE0FC0FE01E80DF11DA6
S11309508081803321F49A2D997EA92E09C0A2FEAC
S113096006C0B394B39404C08A2D867809F0B39476
S1130970A3FC11C0A0FE06C0B21488F4280C922C6B
S11309809B180EC0B21460F4B60180E290E00E949D
S11309902F05B394F7CFB21418F42B1802C0982C77
S11309A0212CA4FE10C0B60180E390E00E942F0524
S11309B0A2FE17C0A1FC03C088E790E002C088E54E
S11309C090E0B6010CC08A2D867859F0A1FE02C0D1
S11309D08BE201C080E2A7FC8DE2B60190E00E94A8
S11309E02F05891438F4B60180E390E00E942F05A6
S11309F09A94F7CF8A94F301E80DF11D8081B60132
S1130A0090E00E942F058110F5CF222009F442CEF8
S1130A10B60180E290E00E942F052A94F6CFF601F9
S1130A208681978102C08FEF9FEF2B96E2E10C94B1
S1130A30E505FC010590615070400110D8F78095E0
S1130A4090958E0F9F1F0895FC0161507040019096
S1130A500110D8F7809590958E0F9F1F08950F93DE
S1130A601F93CF93DF93FB01238121FD03C08FEFFD
S1130A709FEF2CC022FF16C0468157812481358107
S1130A804217530744F4A081B1819D012F5F3F4F6A
S1130A90318320838C93268137812F5F3F4F3783A7
S1130AA0268314C08B01EC01FB010084F185E02D49
S1130AB00995892BE1F6D80116968D919C9117978B
S1130AC0019617969C938E931697CE01DF91CF9142
S1130AD01F910F910895FA01AA27283051F120316E
S1130AE081F1E8946F936E7F6E5F7F4F8F4F9F4FBE
S1130AF0AF4FB1E03ED0B4E03CD0670F781F891F00
S1130B009A1FA11D680F791F8A1F911DA11D6A0FCD
S1130B10711D811D911DA11D20D009F468943F9180
S1130B202AE0269F11243019305D3193DEF6CF017F
S1130B300895462F4770405D4193B3E00FD0C9F745
S1130B40F6CF462F4F70405D4A3318F0495D31FDB2
S1130B504052419302D0A9F7EACFB4E0A695979505
S1130B60879577956795BA95C9F7009761057105DB
S1130B7008959B01AC010A2E069457954795379525
S1130B802795BA95C9F7620F731F841F951FA01D7F
S1130B9008952F923F924F925F926F927F928F921D
S1130BA09F92AF92BF92CF92DF92EF92FF920F93F8
S1130BB01F93CF93DF93CDB7DEB7CA1BDB0B0FB602
S1130BC0F894DEBF0FBECDBF09942A8839884888BF
S1130BD05F846E847D848C849B84AA84B984C88455
S1130BE0DF80EE80FD800C811B81AA81B981CE0F4C
S1130BF0D11D0FB6F894DEBF0FBECDBFED01089531
S1070C00F894FFCF92
S1130C040D0A2A2A2A2A2A204D656E75202A2A2AA0
S1130C142A2A0D0A00312E204D6F737472617220DA
S1130C2476616C6F726573206465204144430D0AD8
S1130C3400322E20496E6372656D656E7461722094
S1130C44636F6E7461646F7220282B290D0A00335C
S1130C542E2044656372656D656E74617220636FE2
S1130C646E7461646F7220282D290D0A00342E20BD
S1130C744D6F73747261722076616C6F7220646557
S1130C846C20636F6E7461646F720D0A002A2A2AE1
S1130C942A2A2A2A2A2A2A2A2A2A2A2A2A2A0D0AE9
S1130CA40053656C656363696F6E6520756E6120BE
S1130CB46F706369F36E3A200056616C6F726573EA
S1130CC420414443202D20414443363A2025752CA9
S1130CD420414443373A2025750D0A00436F6E744E
S1130CE461646F7220696E6372656D656E746164AC
S1130CF46F2E0D0A00436F6E7461646F7220646515
S1130D046372656D656E7461646F2E0D0A005661BD
S1130D146C6F722064656C20636F6E7461646F72AF
S1130D243A2025640D0A004F706369F36E20696EDE
S1130D3476E16C6964612E20506F72206661766F6F
S1130D44722C2073656C656363696F6E6520756EC0
S1130D5461206F706369F36E2076E16C6964612EBF
S1130D640D0A0053313A202053323A202053333AA7
S10D0D7400253475002534640000E6
S9030000FC
