S00D00004C61625F322E7372656377
S11300000C9434000C9451000C9451000C94510045
S11300100C9451000C9451000C9451000C94510018
S11300200C9451000C9451000C9451000C94510008
S11300300C9451000C9451000C9451000C945100F8
S11300400C9451000C9451000C9451000C945100E8
S11300500C9451000C9451000C9451000C945100D8
S11300600C9451000C94510011241FBECFEFD8E022
S1130070DEBFCDBF12E0A0E0B1E0E0E0F0E102C0FD
S113008005900D92A038B107D9F722E0A0E8B2E0BC
S113009001C01D92AA3CB207E1F70E9403020C942E
S11300A0FE070C94000080E480937C0087E8809332
S11300B07A000895ECE7F0E09081987F8770892BAF
S11300C08083EAE7F0E080818064808380917A0015
S11300D086FDFCCF80917800909179000895CF92AD
S11300E0DF92EF92FF920F931F93CF93DF936C01F4
S11300F07B01D42FC0E011C08C2F90E08C01000F45
S1130100111F0E0D1F1DF601E80FF91F80810E94BB
S11301105A00F80191838083CF5FCD1768F3DF9194
S1130120CF911F910F91FF90EF90DF90CF900895A2
S113013080FF04C095B1986095B903C095B1977FCD
S113014095B981FF04C095B1946095B903C095B188
S11301509B7F95B982FF04C09BB194609BB903C097
S11301609BB19B7F9BB983FF04C09BB198609BB9F3
S113017003C09BB1977F9BB984FF04C09BB190617E
S11301809BB903C09BB19F7E9BB985FF04C09BB103
S113019090629BB903C09BB19F7D9BB986FF04C04D
S11301A09BB190649BB903C09BB19F7B9BB988238F
S11301B024F48BB180688BB908958BB18F778BB998
S11301C0089595B19D7F95B90E94980085B181608D
S11301D085B98FE39FE10197F1F700C0000085B175
S11301E08E7F85B98FE39FE10197F1F700C000008E
S11301F0089585B18D7F85B985B18E7F85B92FEF3F
S113020089EF90E0215080409040E1F700C0000069
S113021080E30E94E1008FE19EE40197F1F700C0C2
S1130220000080E30E94E1008FE99FE00197F1F76D
S113023000C0000080E30E94E1008FE39CE9019785
S1130240F1F700C0000088E30E94E1008CE00E9406
S1130250E10081E00E94E1008FE39FE10197F1F763
S113026000C0000086E00E94E100089581E00E9441
S1130270E1008FE39FE10197F1F700C000000895CA
S1130280813029F480E8860F0E94E10008958230CD
S113029021F480EC860F0E94E100089595B19260EC
S11302A095B90E94980085B1816085B98FE39FE17B
S11302B00197F1F700C0000085B18E7F85B98FE307
S11302C09FE10197F1F700C000000895CF93DF93F9
S11302D0EC0103C021960E944E0188818111FACF5E
S11302E0DF91CF91089580E091E00E940C0385E1B5
S11302F091E00E940C0381E391E00E940C038FE4DF
S113030091E00E940C038DE691E00E940C038DE8BD
S113031091E00E940C0381EA91E00E940C0308958D
S11303208D32E1F118F48B3259F166C0813321F03A
S1130330843309F441C060C0E6ECF2E081818F931C
S113034080818F9383818F9382818F9389EB91E056
S11303509F938F931F9280E48F9384E892E09F93FE
S11303608F930E94060584E892E00E940C038DB7E7
S11303709EB70A960FB6F8949EBF0FBE8DBF40C0BD
S113038080918002909181020196909381028093E2
S113039080028CED91E00E940C0332C080918002B7
S11303A0909181020197909381028093800285EF5E
S11303B091E00E940C0324C0809181028F9380916C
S11303C080028F938EE092E09F938F931F9280E43C
S11303D08F9384E892E09F938F930E94060584E8AC
S11303E092E00E940C038DB79EB708960FB6F8945E
S11303F09EBF0FBE8DBF04C087E292E00E940C0333
S11304000E9473010895CF93DF9300D0CDB7DEB778
S11304108FEF8AB98FE084B90E94F9000E945300DB
S113042060E875E280E090E00E94E90287E0898359
S113043086E08A830E9436012FEF31EE84E021505A
S113044030408040E1F700C0000060E081E00E949D
S1130450400183E692E00E9466010E94730142E03B
S113046066EC72E0CE0101960E946F0006EC12E089
S1130470F8016081718180E090E00E94C10320E076
S113048030E040EA50E40E944F0420E030EC4FE7B3
S113049054E40E94190320E030E048EC52E40E9446
S11304A04F040E948B037093830260938202F801CD
S11304B06281738180E090E00E94C10320E030E01B
S11304C040EA50E40E944F0420E030EC4FE754E44B
S11304D00E94190320E030E048EC52E40E944F04EB
S11304E00E948B037093C5026093C40260E082E0B3
S11304F00E94400180918202909183020F2EF4E6C3
S1130500AF2EB12CF02DB5010E94BC049F938F93A4
S11305107F936F930F2EF3E7EF2EF2E0FF2EF02D73
S1130520FF92EF921F926894DD24D4F8DF9204E8DE
S113053012E01F930F930E940605C8010E946601F2
S113054066E082E00E9440018091C4029091C5025D
S1130550B5010E94BC049F938F937F936F93FF9286
S1130560EF921F92DF921F930F930E940605C8011A
S11305700E9466016BE082E00E944001809181024A
S11305808F93809180028F938CE792E09F938F9357
S11305901F9280E48F931F930F930E940605C80156
S11305A00E9466018091C0000FB6F894DEBF0FBEB2
S11305B0CDBF882324F40E9405030E9490013FEFDD
S11305C089E698E1315080409040E1F700C0000096
S11305D046CF9B01AC0160E472E48FE090E00E949E
S11305E0D004215031093093C5002093C40088E120
S11305F08093C10086E08093C20008959091C0006A
S113060095FFFCCF8093C60008958091C000882395
S1130610E4F78091C6000895CF93DF93EC0103C003
S113062021960E94FE0288818111FACFDF91CF9139
S113063008950E942D030C9415040E940E0458F092
S11306400E94070440F029F45F3F29F00C94FE0354
S113065051110C9449040C9404040E94260468F378
S11306609923B1F3552391F3951B550BBB27AA2767
S113067062177307840738F09F5F5F4F220F331FA1
S1130680441FAA1FA9F335D00E2E3AF0E0E832D069
S113069091505040E695001CCAF72BD0FE2F29D06C
S11306A0660F771F881FBB1F261737074807AB073E
S11306B0B0E809F0BB0B802DBF01FF2793585F4FB3
S11306C03AF09E3F510578F00C94FE030C944904D3
S11306D05F3FE4F3983ED4F3869577956795B79595
S11306E0F7959F5FC9F7880F911D9695879597F9A0
S11306F00895E1E0660F771F881FBB1F6217730719
S11307008407BA0720F0621B730B840BBA0BEE1F2D
S113071088F7E09508950E9492036894B1110C94AF
S1130720490408950E942E0488F09F5798F0B92F29
S11307309927B751B0F0E1F0660F771F881F991F12
S11307401AF0BA95C9F714C0B13091F00E94480468
S1130750B1E008950C944804672F782F8827B85F78
S113076039F0B93FCCF3869577956795B395D9F76A
S11307703EF490958095709561957F4F8F4F9F4F74
S11307800895E89409C097FB3EF490958095709580
S113079061957F4F8F4F9F4F9923A9F0F92F96E9C9
S11307A0BB279395F695879577956795B795F1113E
S11307B0F8CFFAF4BB0F11F460FF1BC06F5F7F4FDB
S11307C08F4F9F4F16C0882311F096E911C07723ED
S11307D021F09EE8872F762F05C0662371F096E8F6
S11307E0862F70E060E02AF09A95660F771F881FC5
S11307F0DAF7880F9695879597F9089597F99F6783
S113080080E870E060E008959FEF80EC0895002494
S11308100A941616170618060906089500240A9461
S113082012161306140605060895092E0394000CE7
S113083011F4882352F0BB0F40F4BF2B11F460FF76
S113084004C06F5F7F4F8F4F9F4F089557FD90589F
S1130850440F551F59F05F3F71F04795880F97FB80
S1130860991F61F09F3F79F087950895121613063A
S11308701406551FF2CF4695F1DF08C01616170669
S11308801806991FF1CF869571056105089408959E
S1130890E894BB2766277727CB0197F908950E9430
S11308A062040C9415040E94070438F00E940E049C
S11308B020F0952311F00C94FE030C9404041124ED
S11308C00C9449040E94260470F3959FC1F3950F7C
S11308D050E0551F629FF001729FBB27F00DB11DC0
S11308E0639FAA27F00DB11DAA1F649F6627B00D50
S11308F0A11D661F829F2227B00DA11D621F739F39
S1130900B00DA11D621F839FA00D611D221F749F46
S11309103327A00D611D231F849F600D211D822F8D
S1130920762F6A2F11249F5750409AF0F1F08823B4
S11309304AF0EE0FFF1FBB1F661F771F881F9150E1
S11309405040A9F79E3F510580F00C94FE030C948F
S113095049045F3FE4F3983ED4F386957795679511
S1130960B795F795E7959F5FC1F7FE2B880F911D0B
S11309709695879597F9089597FB072E16F400949A
S113098007D077FD09D00E94F20407FC05D03EF49D
S1130990909581959F4F0895709561957F4F089527
S11309A0A1E21A2EAA1BBB1BFD010DC0AA1FBB1F6F
S11309B0EE1FFF1FA217B307E407F50720F0A21BE1
S11309C0B30BE40BF50B661F771F881F991F1A944E
S11309D069F760957095809590959B01AC01BD0178
S11309E0CF010895AA1BBB1B51E107C0AA1FBB1F5F
S11309F0A617B70710F0A61BB70B881F991F5A95A7
S1130A00A9F780959095BC01CD010895AEE0B0E0C2
S1130A10ECE0F5E00C94D5070D891E898F89988D3B
S1130A2026E02C831A83098397FF02C080E090E8B4
S1130A3001979E838D83AE01455E5F4F698D7A8DEC
S1130A40CE0101960E9436054D815E8157FD0AC094
S1130A502F813885421753070CF49A01F801E20FED
S1130A60F31F10822E96E4E00C94F107ABE0B0E0A3
S1130A70ECE3F5E00C94C7076C017B018A01FC01EF
S1130A8017821682838181FFCCC1CE0101963C017D
S1130A90F6019381F70193FD859193FF81917F0185
S1130AA0882309F4BAC1853239F493FD859193FF03
S1130AB081917F01853229F4B60190E00E942D07CF
S1130AC0E7CF912C212C312CFFE1F315D8F08B3298
S1130AD079F038F4803279F08332A1F4232D206147
S1130AE01DC08D3261F0803369F4232D216016C05E
S1130AF0832D8260382EE32DE4603E2E2AC0F32D30
S1130B00F8601DC037FC2DC020ED280F2A3040F0BE
S1130B108E32B9F436FC81C1232D2064322E19C0E3
S1130B2036FE06C08AE0989E200D1124922E11C034
S1130B30EAE02E9E200D1124222EF32DF0623F2E8A
S1130B4008C08C3621F4832D8068382E02C0883684
S1130B5041F4F70193FD859193FF81917F01811108
S1130B60B3CF982F9F7D9554933028F40C5F1F4F7B
S1130B709FE399830DC0833631F0833771F0833559
S1130B8009F059C021C0F801808189830E5F1F4F8D
S1130B9088248394912C530113C02801F2E04F0E52
S1130BA0511CF801A080B18036FE03C0692D70E0AD
S1130BB002C06FEF7FEFC5010E9422074C01820142
S1130BC0F32DFF773F2E16C0280122E0420E511C60
S1130BD0F801A080B18036FE03C0692D70E002C028
S1130BE06FEF7FEFC5010E9417074C01F32DF068EA
S1130BF03F2E820133FC1BC0822D90E0881699069B
S1130C00B0F4B60180E290E00E942D072A94F4CF5C
S1130C10F50137FC859137FE81915F01B60190E0C3
S1130C200E942D0721102A9421E0821A9108811430
S1130C30910471F7E8C0843611F0893641F5F80162
S1130C4037FE07C060817181828193810C5F1F4FE1
S1130C5008C060817181072E000C880B990B0E5F10
S1130C601F4FF32DFF763F2E97FF09C09095809577
S1130C70709561957F4F8F4F9F4FF0683F2E2AE00C
S1130C8030E0A3010E946907882E861845C0853785
S1130C9031F4232D2F7EB22E2AE030E025C0932D8F
S1130CA0997FB92E8F36C1F018F4883579F0B5C024
S1130CB0803719F0883721F0B0C0E92FE061BE2EEB
S1130CC0B4FE0DC0FB2DF460BF2E09C034FE0AC073
S1130CD0292F2660B22E06C028E030E005C020E1AE
S1130CE030E002C020E132E0F801B7FE07C06081C5
S1130CF07181828193810C5F1F4F06C06081718175
S1130D0080E090E00E5F1F4FA3010E946907882EC8
S1130D108618FB2DFF773F2E36FE0DC0232D2E7F28
S1130D20A22E891458F434FE0BC032FC09C0832D62
S1130D308E7EA82E05C0B82CA32C03C0B82C01C0ED
S1130D40B92CA4FE0FC0FE01E80DF11D8081803393
S1130D5021F49A2D997EA92E09C0A2FE06C0B3944F
S1130D60B39404C08A2D867809F0B394A3FC11C00F
S1130D70A0FE06C0B21488F4280C922C9B180EC056
S1130D80B21460F4B60180E290E00E942D07B3949F
S1130D90F7CFB21418F42B1802C0982C212CA4FEFF
S1130DA010C0B60180E390E00E942D07A2FE17C098
S1130DB0A1FC03C088E790E002C088E590E0B6019A
S1130DC00CC08A2D867859F0A1FE02C08BE201C0C6
S1130DD080E2A7FC8DE2B60190E00E942D07891401
S1130DE038F4B60180E390E00E942D079A94F7CF7F
S1130DF08A94F301E80DF11D8081B60190E00E9410
S1130E002D078110F5CF222009F442CEB60180E2ED
S1130E1090E00E942D072A94F6CFF60186819781EF
S1130E2002C08FEF9FEF2B96E2E10C94E307FC01E5
S1130E300590615070400110D8F7809590958E0F01
S1130E409F1F0895FC016150704001900110D8F774
S1130E50809590958E0F9F1F08950F931F93CF93A6
S1130E60DF93FB01238121FD03C08FEF9FEF2CC093
S1130E7022FF16C0468157812481358142175307CA
S1130E8044F4A081B1819D012F5F3F4F31832083C2
S1130E908C93268137812F5F3F4F3783268314C07D
S1130EA08B01EC01FB010084F185E02D0995892B70
S1130EB0E1F6D80116968D919C9117970196179695
S1130EC09C938E931697CE01DF91CF911F910F9132
S1130ED00895FA01AA27283051F1203181F1E894CC
S1130EE06F936E7F6E5F7F4F8F4F9F4FAF4FB1E019
S1130EF03ED0B4E03CD0670F781F891F9A1FA11D14
S1130F00680F791F8A1F911DA11D6A0F711D811D14
S1130F10911DA11D20D009F468943F912AE0269FD9
S1130F2011243019305D3193DEF6CF010895462F38
S1130F304770405D4193B3E00FD0C9F7F6CF462F19
S1130F404F70405D4A3318F0495D31FD4052419382
S1130F5002D0A9F7EACFB4E0A6959795879577953F
S1130F606795BA95C9F700976105710508959B01C6
S1130F70AC010A2E06945795479537952795BA954F
S1130F80C9F7620F731F841F951FA01D08952F9228
S1130F903F924F925F926F927F928F929F92AF9205
S1130FA0BF92CF92DF92EF92FF920F931F93CF9352
S1130FB0DF93CDB7DEB7CA1BDB0B0FB6F894DEBFE9
S1130FC00FBECDBF09942A88398848885F846E840F
S1130FD07D848C849B84AA84B984C884DF80EE8059
S1130FE0FD800C811B81AA81B981CE0FD11D0FB662
S1130FF0F894DEBF0FBECDBFED010895F894FFCF86
S11310000D0A2A2A2A2A2A204D656E75202A2A2AA0
S11310102A2A0D0A00312E204D6F737472617220DA
S113102076616C6F726573206465204144430D0AD8
S113103000322E20496E6372656D656E7461722094
S1131040636F6E7461646F7220282B290D0A00335C
S11310502E2044656372656D656E74617220636FE2
S11310606E7461646F7220282D290D0A00342E20BD
S11310704D6F73747261722076616C6F7220646557
S11310806C20636F6E7461646F720D0A002A2A2AE1
S11310902A2A2A2A2A2A2A2A2A2A2A2A2A2A0D0AE9
S11310A00053656C656363696F6E6520756E6120BE
S11310B06F706369F36E3A200056616C6F726573EA
S11310C020414443202D20414443363A2025752CA9
S11310D020414443373A2025750D0A00436F6E744E
S11310E061646F7220696E6372656D656E746164AC
S11310F06F2E0D0A00436F6E7461646F7220646515
S11311006372656D656E7461646F2E0D0A005661BD
S11311106C6F722064656C20636F6E7461646F72AF
S11311203A2025640D0A004F706369F36E20696EDE
S113113076E16C6964612E20506F72206661766F6F
S1131140722C2073656C656363696F6E6520756EC0
S113115061206F706369F36E2076E16C6964612EBF
S11311600D0A0053313A20202053323A20202053D4
S1131170333A0025642E2530326456002534640049
S9030000FC
